:020000040800F2
:1000000000000120C5020008CB020008CF02000852
:1000100041030008450300088D03000800000000AC
:10002000000000000000000000000000D5030008F0
:10003000D903000800000000DD030008890C000857
:10004000F1030008F1030008F1030008F1030008C0
:10005000F1030008F1030008F1030008F1030008B0
:10006000F1030008F1030008F1030008F1030008A0
:10007000F1030008F1030008F1030008F103000890
:10008000F1030008F1030008F1030008000000007C
:10009000000000000000000000000000F103000864
:1000A000F1030008F1030008F1030008F103000860
:1000B000F1030008F1030008F1030008F103000850
:1000C000F1030008F1030008F1030008090C00081F
:1000D000F1030008AD0C0008F10300080000000067
:1000E000F1030008F1030008F1030008000000001C
:1000F000000000000000000000000000F103000804
:1001000000000000F1030008F1030008F1030008FB
:1001100000000000000000000000000000000000DF
:100120002D080008F1030008F1030008F10300089E
:10013000F1030008000000000000000000000000C3
:10014000000000000000000000000000F1030008B3
:10015000F1030008F1030008F1030008F1030008AF
:10016000F1030008F1030008000000000000000097
:10017000000000000000000000000000000000007F
:1001800000000000F1030008000000000000000073
:10019000F103000800B583B000F0BAF9384B394AD2
:1001A0001360394A1360394900E02146384B9942BF
:1001B0000BD20A684B6801F10C0488689842F4D9A4
:1001C0001168196004330432F8E72E4B1A68314B7A
:1001D0009A4200D0FEE72C4B1A682F4B9A42F9D175
:1001E000274B2E4A13602E4A13602E4B05E0002049
:1001F000106004329342FAD80B462B4A934204D241
:10020000194651F8082B5B68F4E7244B1B6813B9B7
:10021000234B1B6803B1FEE700F086F9694601A88D
:1002200000F022F9214C224BE41AA4100025AC4224
:1002300014DC204C204BE41AA4100025AC4213DC43
:100240000099019800F03AFD05461C4C1C4BE41A3D
:10025000A410002C0EDC284600F0E2F8144B53F8F2
:10026000253098470135E2E7134B53F8253098477E
:100270000135E3E7013C124B53F824309847E8E797
:10028000BABADECA0000002074000020F40300089F
:100290000C04000878563412325476987800002006
:1002A000200100200C0400081C0400081C040008A5
:1002B0001C0400081C0400081C0400081C0400089E
:1002C0001C04000808B5FFF765FF00BEFEE71EF03E
:1002D000040F0CBFEFF30880EFF309807146414A29
:1002E00010472DE9F04182B004468846124B5E6B00
:1002F0009F6B9D6A1B6B13F0020F03D00E4BDB6AE2
:10030000002B0CDB0D4800F0B7F8CDF800803B4621
:1003100032462946204600F00BF900BEFEE74BF6B8
:10032000AB6100F07FF90028ECD0034B4FF00042A6
:10033000DA6202B0BDE8F08100ED00E04417000889
:1003400000BEFEE71EF0040F0CBFEFF30880EFF3D2
:1003500009807146244A10472DE9F04182B00446D5
:100360008846084B5E6B9F6B9D6A074800F084F8D7
:10037000CDF800803B4632462946204600F0D8F8AA
:1003800000BEFEE700ED00E0541700081EF0040F69
:100390000CBFEFF30880EFF309807146134A104752
:1003A0002DE9F04182B004468846084B5E6B9F6B96
:1003B0009D6A074800F060F8CDF800803B46324661
:1003C0002946204600F0B4F800BEFEE700ED00E04C
:1003D0006017000800BEFEE700BEFEE700BEFEE7B5
:1003E00070470000E302000859030008A103000859
:0403F00000BEFEE766
:1003F400B4B700080000002078000020B4B700085B
:1004040000000010000000107800002024010020EB
:080414000000001000000010C0
:10042000FEE7000008B503460C4A12685AB10B4AB1
:100430001068033323F003030344094A934206D8A8
:10044000064A136008BD054A06491160EFE700F04F
:1004500073FC0C2303604FF0FF30F3E77C000020B7
:1004600000FC00202401002001230360014B0B60ED
:10047000704700BF040000200FB400B583B004AB88
:1004800053F8042B01938021064800F087FC0028D4
:1004900003DD0146034800F037F803B05DF804EBD4
:1004A00004B07047840000202DE9F04385B0044675
:1004B0000F4643560BB10E461EE004252846214642
:1004C000ABBE0446384605B0BDE8F08314F9011B05
:1004D00004AA1A4402F8101C0133AB42F6D304AA52
:1004E0001344002203F8102C4FF00408E94640465C
:1004F0004946ABBE8046761B002EE3D03546102E13
:1005000028BF10250023E8E708B5FFF7CDFF08BD99
:1005100008B500F097F8024A024B9A6008BD00BF88
:100520000000000800ED00E008B500F0ABF808BDE1
:10053000F8B504460D4617461E462748FFF79CFFB0
:1005400021682648FFF798FF61682548FFF794FF68
:10055000A1682448FFF790FFE1682348FFF78CFF6C
:1005600021692248FFF788FF61692148FFF784FF6E
:10057000A1692048FFF780FFE1691F48FFF77CFF72
:100580001E48FFF779FF29461D48FFF775FF1D4CF0
:10059000E16A1D48FFF770FF216B1C48FFF76CFFF5
:1005A000E16B1B48FFF768FF15F0800F0AD115F4C7
:1005B000004F0CD11748FFF75FFF06991648FFF769
:1005C0005BFFF8BD39461548FFF756FFEFE73146A8
:1005D0001348FFF751FFEDE728160008381600080A
:1005E0004816000858160008681600087816000813
:1005F0008816000898160008A8160008B816000803
:10060000C416000800ED00E0D4160008E416000847
:10061000F4160008241700082C1700080417000817
:100620001417000883691A888A4201D00020704795
:100630000268033A012A03D802338361012070471C
:10064000002070470C4B1A6842F001021A6000212A
:1006500099601A6822F0847222F480321A60074A84
:100660005A601A6822F480221A60D960044B4FF055
:1006700000629A60704700BF0038024010300024CA
:1006800000ED00E0224B9B6803F00C03042B14D018
:10069000082B16D01BB11F4B1F4A1A6002E01D4BDE
:1006A0001D4A1A601A4B9B68C3F303131B4AD15CA3
:1006B000184A1368CB4013607047164B184A1A60EB
:1006C000F0E7134B5A685B6803F03F0312F4800FA6
:1006D00013D0134AB2FBF3F20D4B5B68C3F38813DC
:1006E00003FB02F30A4A5268C2F30142013252008C
:1006F000B3FBF2F3074A1360D4E7074AB2FBF3F205
:10070000034B5B68C3F3881303FB02F3EAE700BF04
:10071000003802400C0000200024F400701700088C
:1007200040787D0110B5044601220221002000F02E
:1007300039F9204600F04EFA10BD10B504460022EB
:100740000221104600F02EF9204600F043FA10BDB9
:1007500008B501221146002000F024F9642000F0C1
:1007600081FA00220121104600F01CF9012000F05E
:1007700079FA01221146002000F014F9642000F0FB
:1007800071FA00220121104600F00CF9642000F0FB
:1007900069FA01221146002000F004F9782000F0E7
:1007A00061FA1120FFF7C9FF962000F05BFA3A20AA
:1007B000FFF7C3FF0520FFF7B5FF2920FFF7BDFFB7
:1007C00008BD38B505462A20FFF7B7FF0020FFF720
:1007D000A9FF0020FFF7A6FF0020FFF7A3FF7F205F
:1007E000FFF7A0FF2B20FFF7A8FF0020FFF79AFFDD
:1007F0000020FFF797FF0020FFF794FF9F20FFF7EF
:1008000091FF2C20FFF799FF00240AE035F814002F
:10081000000AFFF787FF15F81400FFF783FF013484
:10082000A4B2B4F5A04FF1D338BD000008B5024B17
:100830001B68984708BD00BF0401002005282DD87B
:10084000DFE800F0030A11181F2615480368490065
:100850008A401A43026070471248036849008A4080
:100860001A43026070471048036849008A401A43DF
:10087000026070470D48036849008A401A430260CD
:1008800070470B48036849008A401A43026070476A
:100890000848036849008A401A430260704700BF55
:1008A000000002400004024000080240000C024028
:1008B00000100240001C0240052827D8DFE800F0A5
:1008C00003090F151B21124843688A401A434260EE
:1008D0007047104843688A401A43426070470E4888
:1008E00043688A401A43426070470C4843688A4014
:1008F0001A43426070470A4843688A401A4342607C
:100900007047084843688A401A434260704700BFF6
:10091000000002400004024000080240000C0240B7
:1009200000100240001C024005282DD8DFE800F02E
:10093000030A11181F261548836849008A401A4384
:10094000826070471248836849008A401A43826077
:1009500070471048836849008A401A438260704794
:100960000D48836849008A401A43826070470B48EB
:10097000836849008A401A43826070470848836848
:1009800049008A401A438260704700BF000002405D
:100990000004024000080240000C02400010024027
:1009A000001C0240012A06D0052870D8DFE800F0BC
:1009B0003A434C555E67052869D8DFE800F0030B21
:1009C000131B232B32484369012202FA01F1194318
:1009D000416170472F484369012202FA01F119432E
:1009E000416170472C484369012202FA01F1194321
:1009F0004161704729484369012202FA01F1194314
:100A00004161704726484369012202FA01F1194306
:100A10004161704723484369012202FA01F11943F9
:100A2000416170471A484369012202FA01F123EA41
:100A300001014161704717484369012202FA01F13F
:100A400023EA01014161704713484369012202FA18
:100A500001F123EA01014161704710484369012215
:100A600002FA01F123EA0101416170470C48436930
:100A7000012202FA01F123EA0101416170470948AC
:100A80004369012202FA01F123EA01014161704741
:100A9000000002400004024000080240000C024036
:100AA00000100240001C024007291DD801280BD06D
:100AB00010B1022810D070471E48036A890002FA5C
:100AC00001F11943016270471B48036A890002FA69
:100AD00001F11943016270471848036A890002FA5C
:100AE00001F119430162704710B401280ED018B10A
:100AF000022815D010BC70470E4C606A01F0070345
:100B00009B0002FA03F101436162F3E70A4C606A59
:100B100001F007039B0002FA03F101436162E9E778
:100B20000648436A01F00701890002FA01F11943FE
:100B30004162DFE70000024000040240000802407A
:100B4000032822D8DFE800F0020A121A0F480368CF
:100B5000012202FA01F11943016070470C48036851
:100B6000012202FA01F11943016070470948036844
:100B7000012202FA01F11943016070470648036837
:100B8000012202FA01F11943016070473038024036
:100B9000343802404038024044380240074A136863
:100BA00043F001031360064B1A6822F001021A6039
:100BB0001A6822F002021A60704700BF0038024033
:100BC00008380240024B40F247321A60704700BFBB
:100BD0000030014010B50446002211461046FFF7D0
:100BE000E1FE084BDC60074B9B6813F0800FFAD1E5
:100BF000012200210846FFF7D5FE024BD868C0B29B
:100C000010BD00BF0030014008B5024B1B6898477B
:100C100008BD00BF08010020014B00221A60704788
:100C200010E000E0044B586000229A601A6842F01D
:100C300001021A60704700BF10E000E0024B186824
:100C4000C0F30040704700BF10E000E0044B1A689A
:100C500022F002021A601A6842EA400018607047E7
:100C600010E000E010B50446FFF7D6FF0020FFF7C4
:100C7000EDFF4FF4FA6000FB04F0FFF7D3FFFFF73E
:100C8000DDFF0028FBD010BD00B583B000238DF838
:100C90000730054B1B689847FFF7D0FF8DF807001A
:100CA00003B05DF804FB00BF0C01002008B5024B47
:100CB0001B68984708BD00BF1001002010B5FFF762
:100CC0006DFF00210846FFF73BFF0C210320FFF7D3
:100CD00037FF002410E0012221460020FFF7AEFD7F
:100CE000012221460020FFF71FFE00222146104668
:100CF000FFF7E2FD0134E4B2022CECD90222052117
:100D00000020FFF79BFD022207210020FFF796FD40
:100D1000052211460020FFF7C7FE0522072100200B
:100D2000FFF7C2FEFFF74EFFFFF712FD0148FFF786
:100D300048FDFEE780170008014B1868704700BFA8
:100D40001000002030B5141E05469BB0184605DA89
:100D50008B232B604FF0FF301BB030BD4FF402737C
:100D6000ADF80C3014BF04F1FF3323460293059312
:100D70004FF6FF7300910491ADF80E3002461E9BB2
:100D80006946284600F072F8431CBCBF8B232B60D9
:100D9000002CE1D0009B00221A70DDE707B500931C
:100DA00013460A46014603480068FFF7CBFF03B02D
:100DB0005DF804FB100000202DE9F0478E689E428C
:100DC00082460C469046994637D88A8912F4906F2D
:100DD00031D0256809696F1A6569022305EB45055D
:100DE00095FBF3F509F101033B449D4238BF1D46D5
:100DF000530530D5294600F07DFB064650B90C233B
:100E0000CAF80030A38943F04003A3814FF0FF30BC
:100E1000BDE8F0873A46216900F0FAFAA38923F485
:100E2000906343F08003A381266165613E44ED1B1E
:100E30002660A5604E464E4500D94E463246414694
:100E4000206800F0F0FAA3689B1BA36023681E448F
:100E500026600020DCE72A4600F0A6FB06460028B4
:100E6000E2D12169504600F0F7FAC8E72DE9F04FCA
:100E70009DB0804603938B891D060C4616460FD500
:100E80000B696BB9402100F035FB2060206128B967
:100E90000C23C8F800304FF0FF30C7E040236361F7
:100EA0000023099320238DF8293030238DF82A3030
:100EB0004FF0010B37463D4615F8013B0BB1252B92
:100EC0003ED1B7EB060A0BD0534632462146404688
:100ED000FFF772FF013000F0A480099B534409938F
:100EE0003B78002B00F09D8000234FF0FF32CDE9CE
:100EF0000523049307938DF853301A932F46052248
:100F000017F8011B4F4800F033FA049BD0B9D906FB
:100F100044BF20228DF853201A0744BF2B228DF89E
:100F200053202A782A2A15D0079A2F4600200A250E
:100F3000394611F8013B303B092B4DD9B8B10FE0D0
:100F40002F46B8E73F4A801A0BFA00F01843049086
:100F50003D46D3E7039A111D12680391002A01DB75
:100F6000079204E0524243F00203079204933B7855
:100F70002E2B0CD17B782A2B33D1039B1A1D1B6897
:100F80000392002BB8BF4FF0FF33023705932E4D6D
:100F900039780322284600F0EBF938B14023401B92
:100FA00003FA00F0049B0343013704933978274880
:100FB0008DF8281006227E1C00F0DAF9002838D0BF
:100FC000234B13BB039B073323F00703083303931F
:100FD000099B4B4409936DE705FB023201200F4644
:100FE000A6E700230137059319460A25384610F86D
:100FF000012B303A092A03D9002BC8D00591C6E746
:1010000005FB012101230746F0E703AB00932246CD
:10101000104B04A94046AFF30080B0F1FF3F81467A
:10102000D6D1A3895B063FF536AF09981DB0BDE860
:10103000F08F03AB00932246064B04A9404600F014
:1010400081F8EAE780B7000886B700088AB7000889
:1010500000000000B90D00082DE9F04791461F4639
:101060008A680B69DDF820809342B8BF1346C9F83F
:10107000003091F8432006460C4612B10133C9F8FE
:1010800000302368990642BFD9F800300233C9F80E
:101090000030256815F0060507D104F1190AE36848
:1010A000D9F800209B1AAB4228DC94F84330226820
:1010B000003318BF012392062DD404F143023946B0
:1010C0003046C047013020D02368E568D9F80020B9
:1010D00003F00603042B08BFAD1AA36822690CBFF6
:1010E00025EAE57500259342C4BF9B1AED184FF021
:1010F00000091A344D451AD1002008E00123524658
:1011000039463046C047013003D14FF0FF30BDE8CB
:10111000F0870135C3E7E1185A1C302081F84300FD
:10112000224494F8451082F843100233C5E70123A6
:10113000224639463046C0470130E6D009F1010960
:10114000D8E700002DE9F04301F1430C0C46097E7D
:1011500085B06E291746064698460C9A00F0B38073
:1011600022D8632936D00AD8002900F0B98058293E
:1011700000F0838004F1420584F8421032E06429D3
:1011800001D06929F6D120681368050603F104012E
:101190002AD51B681160002B03DA2D225B4284F8EC
:1011A00043206F480A2239E0732900F09D8008D857
:1011B0006F2920D07029DDD1236843F020032360FC
:1011C00003E0752917D07829D4D1782384F84530E5
:1011D000644855E01368191D1B68116004F142054D
:1011E00084F8423001238CE01B68116010F0400F3E
:1011F00018BF1BB2CFE713682568181D10602806BA
:1012000001D51B6802E06806FBD51B8854486F298E
:1012100014BF0A220822002184F843106568A560E3
:10122000002DC0F29580216821F004012160002B7F
:101230003DD1002D40F08E806546082A0BD12368F1
:10124000DB0708D5236962689A42DEBF302305F8C0
:10125000013C05F1FF35ACEB05032361CDF80080BF
:101260003B4603AA21463046FFF7F6FE01304DD13A
:101270004FF0FF3005B0BDE8F083394884F84510E1
:10128000136821681D1D1B6815600A060BD5CA0767
:1012900044BF41F0200121601BB9226822F02002E6
:1012A00022601022B7E74D0648BF9BB2EFE76546C4
:1012B000B3FBF2F102FB1133C35C05F8013D0B46B1
:1012C0000029F5D1B9E7136825686169181D106018
:1012D00028061B6801D5196002E06A06FBD5198053
:1012E000002323616546B9E71368191D11601D6865
:1012F00062680021284600F03BF808B1401B60609E
:1013000063682361002384F84330A7E723692A46F2
:1013100039463046C0470130AAD023689B0713D412
:10132000E068039B9842B8BF1846A3E701234A46EA
:1013300039463046C04701309AD00135E368039AF8
:101340009B1AAB42F2DCEBE7002504F11909F5E743
:10135000002BACD1037884F8423004F142056CE7ED
:1013600091B70008A2B700080000000000000000CC
:1013700001F0FF01102A2BDB10F0070F08D010F846
:10138000013B013A8B422DD010F0070F42B3F6D14A
:10139000F0B441EA012141EA014122F007047FF063
:1013A00000070023F0E80256083C85EA010586EABA
:1013B000010685FA47F5A3FA87F586FA47F6A5FAF6
:1013C00087F68EB9EED1F0BC01F0FF0102F0070202
:1013D00032B110F8013B013A83EA010313B1F8D1AD
:1013E0000020704701387047002D06BF354603388E
:1013F000073815F0010F07D1013015F4807F02BFC7
:10140000013015F4C03F0130F0BC0138704700BF17
:1014100010B5431E0A44914200D110BD11F8014B92
:1014200003F8014FF7E7884210B501EB020307D834
:10143000421E99420AD011F8014B02F8014FF8E719
:101440008342F5D98118D21AD34200D110BD13F8C6
:10145000014D01F8014DF7E738B50546002945D0A3
:1014600051F8043C0C1F002BB8BFE41800F0D2F870
:101470001F4A1368104633B9636014602846BDE8FC
:10148000384000F0C8B8A3420CD9216862189342D2
:1014900004BF1A685B68636004BF5218226004606E
:1014A000ECE713465A680AB1A242FAD919685818EB
:1014B000A0420BD120680144581882421960DDD146
:1014C000106852685A6001441960D7E702D90C23AA
:1014D0002B60D3E7206821188A4204BF1168526844
:1014E000626004BF091821605C60C7E738BD00BFB7
:1014F0001401002070B5CD1C25F0030508350C2D16
:1015000038BF0C25002D064601DBA94203D90C2368
:101510003360002070BD00F07DF8214A1468214638
:1015200091B9204C23681BB9304600F063F8206065
:101530002946304600F05EF8431C24D10C2333606A
:10154000304600F068F8E4E70B685B1B18D40B2BFF
:101550000FD90B60CD50CC18304600F05CF804F188
:101560000B00231D20F00700C31AD3D05A42E250CB
:10157000D0E78C424B6816BF636013600C46EBE704
:101580000C464968CCE7C41C24F00304A04205D0F3
:10159000211A304600F02EF80130CFD02560DBE76D
:1015A0001401002018010020F8B5074614460E4625
:1015B00021B91146BDE8F840FFF79CBF22B9FFF7FB
:1015C0004BFF25462846F8BD00F026F8A0420FD272
:1015D00021463846FFF78EFF05460028F2D03146F7
:1015E0002246FFF715FF31463846FFF735FFE9E79A
:1015F0003546E7E738B5064C002305460846236024
:10160000FEF710FF431C02D1236803B12B6038BDE5
:101610001C0100207047704751F8043C181F002B34
:10162000BCBF0B58C0187047537461636B2066725F
:10163000616D653A0A000000205230203D202025CF
:101640003038580A00000000205231203D2020256B
:101650003038580A00000000205232203D2020255A
:101660003038580A00000000205233203D20202549
:101670003038580A0000000020523132203D202529
:101680003038580A00000000204C52203D20202510
:101690003038580A00000000205043203D2020250B
:1016A0003038580A0000000020505352203D2025B9
:1016B0003038580A000000004653522F4641523A33
:1016C0000A0000002043465352203D202025303898
:1016D000580A00002048465352203D20202530382B
:1016E000580A00002044465352203D20202530381F
:1016F000580A00002041465352203D202025303812
:10170000580A0000204D4D464152203D20253038DA
:10171000580A00002042464152203D202025303802
:10172000580A00004D6973630A000000204C522FD4
:101730004558435F52455455524E3D202530385848
:101740000A0000005B486172644661756C745D0A52
:10175000000000005B4275734661756C745D0A00A1
:101760005B55736167654661756C745D0A000000C6
:101770000000000000000000010203040607080941
:10178000C3208218611841188220A220C320C320E0
:10179000C320C320A2188110811081108110611014
:1017A0004008A2106108610860082008610861080B
:1017B000410861102008653195BDDAE6DEFFBEFF05
:1017C000BFFFDFFFDFFFFFFFFFF7FFF7FEEFFEF7D3
:1017D000DEEFDFFF9EF75CEF7BEF7BEF5BEF7CEFF5
:1017E0005EEF5DE79EEF7EE73DE77FF73EF75EEF5A
:1017F0007EE7BEE79EDF9EE73EE79FEF9EE79EDF28
:101800003DEF5DF71CEF5CEF7CE77BD79CD77CDF7F
:101810005DEF7FFF7FFFBFFFDFFFFFFFFFF7FFF7FA
:101820002EA40983C87A266A4A8BCCA353D532CD1D
:101830004FB4F2C457EEF6DD94CD33BD98E66C8319
:101840000000811061088108811061086108611041
:101850006110611081100000400860080000400025
:10186000600860084008600880108010C118C11826
:10187000C118C118E12002210221E22022214329BE
:10188000C3208218411841186218A220C320C32027
:10189000E320C218A21881108110811081106110FC
:1018A0006108610840086108610841086108410851
:1018B0004008200800086110084A0F8CCF8B2F9435
:1018C0006D7B8F7BB49C35A5B6AD17B6B9C6DACEA5
:1018D0001CDF3DE73DE7FFF7FEFFDDEFBDEFFFF764
:1018E000BEFF9DF7BDEF7CE79CEF7CF71BF73BF756
:1018F0005BEF5BE75BE73BEF9CFF7CEF3BDF9CE74D
:10190000BEF77DF75CEF5CE77CDF9DDF7DDF5DDFB1
:101910001CE71DE7BBD67ACE18B6F39454AD13ADD1
:101920008B932A83C87AC87A4A8B0EAC32CD73D592
:10193000D1C453D557EEF6DD53C512BDF6D58D8310
:1019400020088110811061088108811081086110D0
:10195000611061104008CA5A0321074228422742F9
:10196000C639E639A95227422742EA5A6852A95A8B
:10197000E95AA85AA85288528852C95A675223294C
:10198000C3208218411841188220A220A220C3201F
:10199000E320C21882108110811081106110611043
:1019A0008110610840086110610840086108400822
:1019B00041084008C218EB628D7B4852EB6A895A95
:1019C000A53100000000000020006108A1084100CE
:1019D0004E6398ADCC4AD384349517AE58AE18A652
:1019E000D5B577C6B8C6D7C639D7F8DE79EF59EF7F
:1019F00099EF9AEF79EF39EFD8E6B7D697C6F8CED8
:101A000058BED28C139D75A5D394B2849284527C17
:101A10008B4AE408C200A1004000400023310E9C24
:101A20006B938B936B93AC9B8C9BB0BCB4DD93DDC1
:101A300012CD53CDD5DDD5DD12BD13BD95CD70A42E
:101A4000A118601081106108610881108110611077
:101A500020088110C218AE7BC639E639CA5AEF7B1E
:101A6000C639684A8C7388528852EE7B6C734B6B14
:101A70000E842A63EA626B73CD7BCD7BA95AC118B1
:101A8000E3288218411841188220A220C320C320D5
:101A9000C320A2188110811081108110610861108B
:101AA0006108610861086110410840086108610827
:101AB0004008A2182C6BCA62E7418539895AC64191
:101AC000EA5AA53162088318621082106110210061
:101AD000ED52579D26110C43692A071A0F5C516479
:101AE0003395D17C73858F5CD06C4A430C5C8A53F0
:101AF000AA534D6C4D742D74263AE5298732A832CD
:101B00002822AA42F07BF083D07BD07B6E63AE6349
:101B100004112000A100C1008000400000104B8B88
:101B20004FB4EDA390BCB0BC6FBCF1C416EE94DD15
:101B300032CD12CD73CD94D5F2BC12BD54C554C56F
:101B400085314008A1106108810881108110811041
:101B500061108110411040088210A218A11081105C
:101B60008110C21803212321022122212329632964
:101B7000432922218331C5398431432963316331BB
:101B8000E3288218411841188220A220C320C320D4
:101B9000C320A218811081108110611061086110AA
:101BA000400841086108410841086108610861086E
:101BB000410869528A52284A895AE641284A284AE5
:101BC000063A2842C318421041104110211001006A
:101BD000AC4AD9AD8719EB3A0A3BA82A4C43D27CD0
:101BE000FFE71375EE43AC334A230D3CE91AE922B3
:101BF0008812060AA409E619640944092F540F4CF7
:101C0000CB328A3A6F6B2E73CC6A0C6BEB5A494A13
:101C1000E639A11800086018A020C44911B552C5C2
:101C200090BC90BC73D573DD73DDF1C4B4DDB4DD5D
:101C300073D532CD73CD53CD12BDF2BC12BDB5CD2F
:101C4000895220088110811081108108810881103B
:101C50008110400882186110811082108110C2101A
:101C6000C1182321E220E22002210221432902217E
:101C70006331633142290221222923292229232980
:101C80000429A2204118411862188220A220C320F2
:101C9000C320A21861106110611061086108611011
:101CA0006108610841084008610861082000400897
:101CB00085318A52CA5A284AE741C639E7416852F3
:101CC000C531895266310008411841188218000058
:101CD0008B4AFCCE0C4B2B4BE942ED636F7CD184DD
:101CE0004F7CAC634A436A3B0923C71AAC3BC81A12
:101CF000260A471A482264096511E619B595AD4BC5
:101D0000092A8B422E630D630C6B895AAA620B73EE
:101D1000286AC661655940308459CC9B298B635130
:101D20002A9312D5D5ED94DD94DD32CD32CD73D525
:101D300093D552CD73CD53CD33C5D2BCF2BCD5D5DE
:101D40006C73200881108110811061086108811076
:101D5000611082108110A2188110A218E218A21836
:101D6000E220A118C11823294329232943298331BB
:101D7000E1206329432922298431843143292329FD
:101D80004531C3206118411882208220A220C3203F
:101D9000A22082186110611061086108400861107A
:101DA0006110610841084008611041082000C31813
:101DB000AA5AC739AA5A0742AA5A8952A639895239
:101DC000A539074A2952821841102010A11000009D
:101DD000CB525DDFD28C0A5396C696CED7DED3BDEA
:101DE0000FBD50BD4FAD0E95CD8CCE84CE846953C2
:101DF0004953495B4E7CB0944742C9523ADF73A5C0
:101E0000ED5A2E638E6B4D636C63EE73D2A48D938B
:101E1000E779498A0782898A0672225180404040C8
:101E2000A46190C4B4E553DD52D593DD52CD52CDBB
:101E300073CD52CD73CD53CD53CDF2BCF2BCD5DDB5
:101E4000EE830008A11881108110610861108110D3
:101E5000821081104008A218C2184008A21803215D
:101E6000C118E2202329E220022143292229222924
:101E7000633163314329432943312229022923292C
:101E80006639E4286218621882208220A220C320CA
:101E9000A22082186110611061084008400861109A
:101EA0004108410841082108610820086108A6315D
:101EB000EB62A639A952C639274A485244316952C1
:101EC00047526539284A24294108600881102000BA
:101ED000CF733CE7F7BDA431D3BD13CE75DEB2C5D9
:101EE00052F672F6A7930DBD72E6AFCDD0CD8362E8
:101EF0002031A141487B92C521314E94FCFFB09C1A
:101F00000C638D6BCE732F7CF28CB5A5BAD6B3ACB7
:101F1000ED8A0D9B0DA3EB926CA32A9B257A626937
:101F200022516B9B32D573DD52D593D5B4DD73CD81
:101F300053CD73D553CD73CD32C5F2C4D1BC94D536
:101F40000F8C0008A11861106110611081108110C0
:101F50008110A218811882186110C218E320A118FC
:101F6000E22002210221232923290221432963316E
:101F70004331222922294331232923292229E220FE
:101F8000A7414531A320411862188220C320C320F5
:101F9000A218811061106110610861086108410890
:101FA0004108821000006108410841084008AA5A0F
:101FB000CA5AC639CA5AE639C639284AA539AA5A68
:101FC0002B73C641284A8A52C2184000A10800005B
:101FD0009294DBE6BADEE5418A7B91BDF3CD75DEF6
:101FE0006FCDAFD56ECD6ED5AFDDABBC0DC5C89B8B
:101FF000E99BE9934B9C2B94CB8376D619EFCD8349
:102000006B634F84D29C13A5B7ADBBC69BBEF16B6F
:10201000A931A949AD7AAF9B0FAC2EB48AA349A3CD
:10202000A882A98AB0C432D552D593D573D593D599
:1020300073CD73CD73CD73CD12C5D1BCD1BCF2C4F9
:1020400091A44010601081108118611081108110DE
:10205000811082188218A218A218C218C218E22091
:10206000E220022102292229222922294329432967
:1020700043294329422922292229222902210221F6
:10208000C7416639C428621862188220C320C32061
:10209000A21881106110611061086108610841088F
:1020A0004108610841088110610800002429CE7BA5
:1020B0006D7389522B6B284A274A853168528952A1
:1020C000A862A962284AE639073A4000A1084008F8
:1020D00056ADDCE6BBE6895AA33992BDB2BDDBFF43
:1020E00032BE12C6B9FF78FFADAC601860416039EE
:1020F0006C94C97B61292019719DFDFF93AD8C7390
:10210000108D52A513A597BD5BC6BDBE956CCF3291
:10211000CB118A19EB39ED62EF8BD1B42EACECAB5D
:102120000EB48CA32EB412CD32D573D573D552CD47
:1021300093D573D553CD32CD12C5F1C4D1BCB1BC4A
:10214000F2AC896220104010811881104008C2183A
:1021500081108118A218A218C218C220E220E22021
:10216000022102290229222922292229422942293F
:10217000432942292329222922290221022102213D
:10218000C84187390531832062188220C320C320CB
:10219000A2186110611061086108610861084108B6
:1021A000410841086108610840080000284A308C55
:1021B000EA62AA5ACA5A6852C63985310742685239
:1021C0004652A4398952073A2742C110810821009A
:1021D0001ACE1EEFFDEE919C6008095B0D74739D95
:1021E0005085B29D55B615BE6E84253A4632252AD5
:1021F000AB5BAB53A732041AAF6C15A6B08453A5E2
:1022000053A533A596B57BCEBDCEFBA5934B8F2AA8
:10221000ED11ED190C224C2AED42CF73AE8BEFA3DA
:10222000B0C46FBCEDABF1C452D553D553D593D5E3
:10223000B4D593D573CD32C512C5F2C4D1BC90B418
:10224000F2B4B1ACE6492010811881106110811000
:102250008110A218A218C218C220E2200221022175
:1022600002292229222922294229422942294229B6
:10227000422923292229222902210221E220E220C7
:10228000C841A8414639C32882208220C320C320E8
:10229000A2186110611061084008410861084108F6
:1022A000410861086108400820088110EA628D7BBE
:1022B000CA626C730B6B48526852E6410642274A69
:1022C000054A0542C639C63927422321610805213E
:1022D0005BD6DDE6DDE659CEE2102311CD5B6C4B1B
:1022E0002C4C3175B495D59DF17C3275126D947579
:1022F000905490548F54ED43CC436B43B07C53A522
:1023000056B535AD3ACE9CCE9DC676741143B032EB
:102310000E222F224E228E220F334F4BAC4ACD621B
:102320000DACD0C44EB48FBC52CD52CD32CDB4DD45
:1023300093D594D594D553CD12C5D1BCD1BCD1BCC5
:10234000F2B433BDB1ACE2286010A118A11881101D
:10235000A118A118C218C218E220E220022102210D
:102360002229222923294229422942294229222994
:1023700023292229222902210221E220E218C11860
:10238000C841C8418639E430A320A220C320C3201D
:10239000821861106008610840084108610841081E
:1023A0004108610861084008400844290B63A95AA4
:1023B00048526C7B6852274A274AA5414852E64159
:1023C0004652C85A48526952A95A07420008663113
:1023D000FDE6BDDEFDDE1CDFC629A0004B4B8D53A4
:1023E000CF64D48D56A6327DB4851165EC33D054BC
:1023F000F154B0546B2BC81A0D44AC4B749537B6DE
:1024000098BD1ACE5CD61BC69DCEB25BAF32B03241
:102410000E220E222F22B02A513B7143EF3A715304
:10242000AB9B4EAC8FBC4EB4F0C452CD72D573D5BD
:1024300073D594D594DD94D533CDF1C4F1C412C5D0
:10244000F2BCD2B4B5CD685A0008A1188010C218E9
:10245000A218C218C218E220E22002210221222181
:10246000222922292329432943294229432923298F
:102470002229222102210221E220C218C118A1181A
:10248000C841C841A7414639C428A320A220C3207F
:10249000821861106008610840084108610841081D
:1024A00061086108400861082008A639895A274A4E
:1024B00047524C732B732B73C641685A0B6BCA621D
:1024C000E96A275289622852E64948528118E74151
:1024D0003EEFBCD61DDF5DDF0B534000CD6358BE21
:1024E000D7B6B39DB3A56D7C308D70850E75CD6C60
:1024F0004F7DAE6C4D64317D19B7F69DD7A5D8B52B
:10250000D8B55BCE3BD63CCE3CC6B15B303BCF2A88
:102510004E224F2A7032B03AF13A103B303B95646C
:102520008EB46A930CA46EB4F0C432CD73D573D557
:1025300093D593D594D594DD74D533CD32C532C5BA
:1025400012C512BD74C54B7B2010A1188110A118B3
:10255000C218C218E220E220022102210221222117
:1025600022292229232943294329232922292229CF
:10257000222102210221E220E218C218A110A1109A
:10258000C841C849C84987412531C328A220C32072
:10259000811861104008610840084108610841083D
:1025A00061084008400861084008484A685247529C
:1025B000685A6852EE83A962A539274ACA62C9627D
:1025C000275A07528541E751896207526431CA5A36
:1025D0009EEFFCDEDBD6FAD6C84A20004F84FAE62E
:1025E00078EF17EF36F715EFD2E60DBE8AADABB533
:1025F0002AAD0BADF1C578EF7AE717B618BE1AC64B
:1026000039BE7ACE7BCEBDD6D9AD704B9143F02A80
:102610008F226F2AB032113B52435143EF3AF35BA2
:1026200092CD8A936A8B2DACAFBC31CD72D593D548
:1026300073D573D594DD94D594D574D553CD33CD5E
:1026400033C574CD94CD4F9CA1208018C218A11819
:10265000C218E220E220022102212221222922297D
:10266000222923292329232923292229222122211E
:1026700002210221E218C118C118A110A110811075
:10268000E849E849E849A7494539C328C320C32098
:10269000811861104008610840084108610841083C
:1026A000610820006108400881100B6BEA62A96292
:1026B000CA62895A0B6B4752E649895A2B6B2B6BBE
:1026C000AC8BCA72E75149620B7B6862C5412F84AB
:1026D0005CE75CDF1BD77BE72542254AB0A453BDEE
:1026E000D9FF77FFB3FEF2FE30FF4BEEC8DDE4C446
:1026F00006D5AAED8CDD72EE54D6D5BD18CE1AD60D
:1027000059CE9ACE9AC67BBE199E7043703B513B00
:102710006F226F22D02A723BB2439143104BD26B8F
:10272000B3D5CFB48A938A932DAC52CD52D532D53E
:1027300032D593D5B4DD94D573D574D574CD53CD3E
:1027400074CD74CDB5D5D6CD02298018A118E21864
:10275000E218E2200221022122292229222922290B
:102760002329232923292329222922210221022165
:102770000221E218E218C118A110A11081108110E5
:10278000E841E849C849A7414639C328C320A220E7
:10279000811840106108610841084108610841083A
:1027A000610061084008000844396C830A7388623C
:1027B000A962274A89528952274AEA620A6BC9628A
:1027C0000C7B6B8B46620562897A897A265A708CFB
:1027D0005DE7FDDEFDE65DEF2842517C349DD18C46
:1027E000F2EEF8FF15F734EF33F7B0E6CDCDEED5C6
:1027F000CED590EE8DCD4FBD16D619CE3AC679C640
:10280000BCBE9CCE1AC6DDD6398D943B742354339E
:10281000B0328F3A1143733B943373337243D363B3
:10282000B8BDD5C56C9CA893268B8BBCD0E531D5A3
:10283000F3CC55DD94E572DDB3DD73D552CDB2D561
:1028400095C5D6CD58DE98E6A86240100229C12071
:10285000E320E320E32003214329432901214229E6
:102860002329232923292229222922210221022165
:10287000E220E218C118A1188110811061106110C6
:10288000E841E849C849A7414639C328C320A220E6
:10289000811840104008610841084108610841085A
:1028A0008208410061100000C649AD8B6B7BA96AAC
:1028B000C9626852474A88520A63EA6227524752FD
:1028C0006A6A0A7B4562C56107720762C4494B6B3D
:1028D0001CDF5FEF1DEF59CECF73559D349DF294F1
:1028E000A9A4F3EE96FFB3E633F78FE64BC5EED51A
:1028F00090EE4FE60FD690C5F6CD39CE19BE59C62B
:102900009CC67BCED8BDFAC579959343522B733BB9
:10291000D4531143724BD4437333D543313BD36308
:10292000F8C5D5C572C5A993C79B6693EECCAFC455
:1029300053D5F2CC53DD93DD93DD73D5F5DD93CD27
:10294000F7D537DEB9EE57DE12AD2231A0180229D5
:10295000032103292429232902214229422921294B
:102960002329232922292221222102210221E220B6
:10297000E118C118A118811081108110611061083F
:10298000E849E849C849C7414639E428C320A2209C
:102990008118401040086108410841086108410859
:1029A0006200410061100008485A4F9C8C8BE9720C
:1029B000EA6A68528852CA5ACA62895A4852064A12
:1029C000CA72886A055A0662E7698559C54968521C
:1029D00018BE1EE71DEF9AD6149DF394F39C129D2A
:1029E000A58BCAACAFCD8DC54FDE11F7EDD568AC68
:1029F000EED590EE91E6F1CDF5C539C67ACE7AC620
:102A0000BBCEBBD6F4A44631B06BB2537243523B3B
:102A10007343934B72439343733BB3437243F463E7
:102A2000D6BDD6C553C54CA4E89B879B6CB46DB48A
:102A30000BAC71DD32D574DD73D5D4DDB4D5D6D50C
:102A400079E6B9EE98E6F5CDF5CD096BC120E12028
:102A5000022903292329232922212229633122291A
:102A6000232922292221022102210221E220E21827
:102A7000C118A118811081106110611061086108EE
:102A8000E849E949C849C8496639E428C328A22069
:102A90008118401040084008410841086108410879
:102AA0006200610861100008275A4FA42A7B6862FF
:102AB0006862064A274A4752EA626852C641E649B6
:102AC000CB720A7BC87206626559C661A86A064263
:102AD00075AD3ACE15ADB6BD55ADF39C33A58F940B
:102AE000C59B079C48A4CAB4C9AC8FE6B0EEA9AC9C
:102AF0002BBDF1F6B5FF73DED4C558CE9ACE7AC69B
:102B00009AD6DBDE5194000083106719CA194D2252
:102B10007243523B9343D44BD34B5143924B756C0E
:102B200079D655B554BD31C5C89B4AACA99B2FCDAC
:102B300009A48CBC72DD33D594DD93D594CD39DEF8
:102B4000FBF6FBF698E6F5CDB4C5D0A4675AE120B4
:102B500022292229022123294329222962294229C3
:102B600023292229222102210221E220E118C11871
:102B7000A118A11081106110610861086108410865
:102B8000E849094AE849C8496639E428C328A22027
:102B900061104008400840084108410861084108A8
:102BA000610041004108000806524FA48C8B0A7B4B
:102BB0008C8326524752C962EE83CE83895A074AD4
:102BC000CA72AD8B6B8B276AE661276AC97267523E
:102BD000F07B97B556B5B7BD75ADF39CD19C2D8CE8
:102BE00025ACA9BC89B468AC26A46BCD2EDE0FDE63
:102BF00068AC0AB533F752D630ADB9D659C6BBCE9C
:102C00009BD6FBDE0F844010C318830864008A1132
:102C10009343D02AD34B3043304B13649153546CBD
:102C2000F7C555B595C5F5DDAEB40A9CE99B8AACF0
:102C3000CFDD879B6CBC52DD53D594D5B6D59AE6D3
:102C4000BAF699EEFAF6F6D594C532B52E948339D4
:102C50000229433122294329633142292229422969
:102C60002329222902210221E220E118C118C118DA
:102C7000A118811081106110610861086108410884
:102C8000E84909520952E8496639E428C320A220DC
:102C90006110400840086108410841086108410886
:102CA0006208210061100008C6494FA490AC0E9C38
:102CB0004B83C96A4B73C9626852CA62EB6AAA62E3
:102CC000896A2B7BA86A2762AA82476A065AA95A90
:102CD000CF7B528CD8C575B534A514A5D19C2C8C4E
:102CE000E8C4A8C4A9BC06A4A8B46BCD6BC52EDEED
:102CF000CDD548A40FD6F4EE2FAD77CE99CE9ACE8F
:102D0000BBD639C6F7BD2421A2108310A500EB194C
:102D1000513B72430F3B4811A400C9296B3A168DF1
:102D2000F8C5D6C5B5C517DEB5D5AEAC4AA4658B1A
:102D30004DCD4DCD669BEECC52DDD7E518E699EE34
:102D400058E638E699EE36DEB4CD11B5F0AC4A73EC
:102D5000012942316331222942296329222942294A
:102D60002229222902210221E220C118C118A1181A
:102D7000A1108110811061086108610841084108B3
:102D8000E84929522952E8496639E328C320A2209C
:102D900061104008400861084108410841084108A5
:102DA00082084108400800082339CD93D1B42EA4ED
:102DB0008C8BAD8B8862E649274A68526852895AE3
:102DC0002752685A475AE659897267720552475224
:102DD0002942CC5A18CE75B514A534ADB09C0B94CD
:102DE00029D566BC87BC67ACE9BCABD54AC5ACCDC0
:102DF00050E689ACCAACD3EE0EAD15C6FBDEBBD631
:102E0000BDCE9BCE9ACE85296208882964002C22EB
:102E100030438D2AE500C508A4106308A3086A4260
:102E2000B7BDD7C5D6CDF7CDD6CDD4CD2A9C289C5D
:102E3000A79311EE8AC4C8AB51DD95DD38EEF7DDFE
:102E400017DE17DEF6DD37E6D4D593C511B5D0AC65
:102E5000E549213162314229222963292229432966
:102E6000222102210221E120E118C118A1188110BC
:102E7000811081106108610841084108410841083A
:102E8000E84929522952E8496639C328C320A220BB
:102E900061104008400861084108410841084108A4
:102EA000410061082008811803310E9412BD4FA41F
:102EB00090AC0E9488620A6B4B73A95A895A8A5A4D
:102EC000C9624652C9620B73686A476A8762EA62DE
:102ED00045296E739AD634A5F39C54AD8F9C6B9C98
:102EE000C6C465B405A487B4C8B46BCD4AC54BC588
:102EF000B1F66CCD0AB571DEECA434CE99D6BBD652
:102F00007CBEDDCED7AD0311C408EF4AF042AF322C
:102F1000EF3A2609A400C4106310A410C4104100A5
:102F2000863117C6F7C5D6CD95BD16D671BD2B9C7B
:102F3000A8936AB410EE29BC2BBC52DD74D594D58D
:102F400095D5B5D594CDD5D5D5D5D4D511B5F0B4C5
:102F50006A7B4231223163312229432922214329CC
:102F6000022102210221E218C118C118A11081100A
:102F70008110610861084108410841084108410881
:102F8000094A29524A5A09524539C328C328821886
:102F900040104010400840084108410841084108DD
:102FA0006108610840080329A2200B73F2B4B1AC98
:102FB00090ACCD8BCD8BC96A4B730B6B4C73695244
:102FC000E962A85A4752485A275A265A8762A95A8C
:102FD000084276AD59CE75ADF39C54AD2C946AA4DD
:102FE00085B486B4E8C4C8BC67AC6AC509BD2AC547
:102FF000F2FE8DCDA9ACCECDCBAC71BDDAE69CDEB8
:103000007DBEBCCE96ADA2080611724B3343113B78
:10301000EE42C308A30826214B42E6108308E310C2
:103020006108F39C59CEF6C5B5C5B5C517D6CC8B8E
:10303000A98B2583CBC411F6A8AB8CC452DD74DDFB
:1030400095D533C595D5B5D5D5D536DE73CD11BD5E
:10305000AFA4055201296331433122292321432999
:1030600002210221E218C118C118A110811081109B
:1030700061086108610841084108410841084108A8
:10308000094A29524A5A09524539C328C328821885
:1030900040104010400840084108410841084108DC
:1030A0006108410841082429A220A2288D8390A408
:1030B000D1AC4F9C90A4685A064A895A6D73CA5A7B
:1030C000E962474A0742895A275A0552665A474ACF
:1030D000CF7B7ACE38C633A5B294F2A4CB8B8AAC20
:1030E00089D50BE629C529C5E9BC4AC54AC5A8B496
:1030F0008CCDADD5EABCEAB40BB56FBD99DE9CDED4
:103100007CC69BCE14A561084811944B3433113B07
:103110006C3AA2088210E931757CF363AC42041169
:103120006108EC5A59CEF6C556CE38CEB7C52D73C8
:103130004A7BE572468B8FDDCFED69BCADC452DDB5
:1031400074D5D5DDF6E516E6D5DDB4D515DE11BDB1
:10315000D0B44A7B22316339433123292329032107
:103160000221E220E218C118A1188110811061101B
:1031700061086108610841084108410841084108A7
:10318000094A4A524A5A09524539C328C328821863
:1031900040104008400840084108410841084108E3
:1031A0004000821041080842E32881180008485A6C
:1031B00095C5709C4F94A95A274AE74189520C63E0
:1031C0008752EA5AAA526952485AE5512552885202
:1031D0008E6B5AC617BE54A5149DD29CA98389AC88
:1031E000A9D56DEE28BD49C52ABDC8B4E9BCE9BC66
:1031F000C9BCCABCA9B4E9B4A9AC0DAD98E69CE6BB
:103200007BC69BD6919C2000CA21F54B342B323BC8
:103210000A32A3108208EA29155C155C178593848D
:1032200061002521F7BDF6C537CE79D6D9BD4E6BE5
:10323000895AAB83A56AA89B51F6AEE5ACC410D5FC
:10324000B4DDB4DDD4DD94DD94D5B4DDB4D594CD56
:1032500011BD8FA46339223143312329242903214D
:10326000E220E218C118A1188110811061106108D4
:1032700061086108610841084108410841084108A6
:10328000294A4A524A5A09524539C328C328821842
:1032900040104008400840084108410841084108E2
:1032A000610820008110CB5AC318E320C3204010CE
:1032B0006C73B5C54F94EE83CA5A284A69520C63A1
:1032C00087520A5B4842C739485A465A044A6852EC
:1032D000CC5AF8BDF7BD139DD3949194C98B26A405
:1032E00028BD4CE6AACD29BD2ABDE8B4A7AC4AC585
:1032F00088B427A488B46AC587A40CAD98E67CDEA0
:103300005ACEBBDE509400002C2A164C132B52438D
:10331000882161084200CF3A9864F64B5985737C46
:1033200042002421D6BD17C6D7C539CE5BC6D1739E
:103330008C4A4D6B49736362CCBCF0ED6FDD2ED5CA
:1033400010C5B3DD31CD11CD52CD11C552CDB4D59F
:1033500032C552BD675AE128433123290321032195
:10336000E218C218A118811081108110610861084B
:1033700061086108410841084108410840084008C7
:1033800029524A5A6A5A09522539C328C328821831
:1033900040104008400840084108410841084108E1
:1033A000400841088210494AC3188210E320E320F4
:1033B00081180F8C12AD0E8CAD7BEA5A0842EB627D
:1033C000096389522842094A695AA76A8762CA5A18
:1033D0006A4A35A5D6B5139DF39C7094C98B428B70
:1033E000259C0CDE0CD6C8AC09BD6BC587ACC8BC2F
:1033F00067B4A9BC0ABD8AC528B50BAD16CE9DDE43
:1034000059C6BBE630940000AD3A164C322B31431E
:1034100026198310C50872439854D543598D4F63BC
:103420002100073A98CE38CEF8C51AC67BC6F2738B
:10343000AE42CD4A4B6B076BA56A0EC511EE2CCD83
:103440006DB4EFC451D531CDF1CCD0BCD0BC32C5B8
:1034500052C573C50D94022922292329C2180321BC
:10346000C218A118A11081108110611061086108B3
:1034700061086108410841084108410841084108C4
:103480004A526A5A6A5A09522531C328C3208218FF
:1034900040104008400840084108410841084108E0
:1034A00081100000A2102D6341008310A310E418C6
:1034B000E3184008EE83D29C308C0B638952694A32
:1034C0000963895229420842495A876A665A895AC9
:1034D000EC5A35A575A5D294928CEE83E99BC49BDA
:1034E000217B4AC58BCDC8AC0ABD4BC5C8BCE8C45E
:1034F0000AC54CCD8CD589C5AAC5689473B5DDE6DF
:1035000059C6DBDE518C0100EF3A154C31330F3BCD
:10351000E5108310C608B343774C364CDAA5AB529E
:103520000100EB5AFAE6D7C5F9C55ACE5ABE126C5D
:10353000CE3AEF42CB426B6B86626883D0DDEEE51C
:103540002ECDE9A38DBCEFC4F0CC31CD8FB4B0BC8F
:1035500011BD32C532BD8339E1202329E218C218DA
:10356000A218A118A11081106110610861086108FA
:1035700061084108410841084108410840084008E5
:103580006A528B5A6A5A084A2531A320C32061180F
:1035900040104008400840084108410841084108DF
:1035A000400800002842DFF7318483084200820887
:1035B000C31003192421508CD29C8D73CA5ACA5A45
:1035C0006B73EA5A4942E941AA62E972265AC6492E
:1035D000ED6276AD54A5F394928CAD83888BA39B5A
:1035E000227BA8AC09BDA8AC2BBD2AC5C8BC4ACD5E
:1035F0002ACD0AC5ACD5CACDEAC5478C72ADDDDE91
:103600007AC6FCDE9394230010431454713BAD3210
:10361000C410830848115554564C144CB8A5E841C1
:103620002100CF7BFCE6B7BDF8C55ACE5BBE136464
:103630005043EF3AED42CB4AED7B645A099C30E6A9
:10364000F1E58BBC68932CACCFC4D0C4F0C48FB46C
:10365000B0B4F0B493C5A862C0202229E218C1100A
:10366000A118A1108110611061086108610861084A
:103670004108410841084108410840084008400805
:103680006A5A8B628A5A084A0531A320A22061181F
:1036900040104008400840084108410841084108DE
:1036A0006108000024215DE7DFF7D8B5CC52051989
:1036B000E41881082000684AB19491946D6BCA5A4D
:1036C0006B73484A4A4A6B52495A4662E45165391B
:1036D0000D6B97B5B29471843184EE838893E4AB1B
:1036E000059CA8ACE9B4069CA9B42AC566ACA7B4ED
:1036F000E5A3C9BC8BCDCACD4BCE2AA593B57CD64C
:10370000BBC63DDFD594430051431454713B6B2A33
:10371000830884088919765C764C755CD8AD2431B1
:103720006100D49CDDE639D617CE5ACE5BBE136459
:1037300070437043714B8D42EA5A887B6262CBBC06
:10374000AFDDD0DD4BB44893EBAB8FBCAFBC11C544
:10375000D0BCF0B472C5CC8BC020E120E218C110FF
:10376000A2108110811061086108610841084108B8
:103770004108410841084108410840084008400804
:103780006A5A8B5A8A5AC8490431C328A22082181F
:1037900041084108410841084108400840084008E4
:1037A0002000C2180000718CFFFFBEF79FF75ACEB1
:1037B00056AD71942F8CB29CB3A472947094A65A97
:1037C0002C63694A0842E841E9498639A639084A22
:1037D000AC5276A5D184707C30848D83478BC49B9A
:1037E0006BACA693E8B4249CC7B42AC5C8BC66AC2D
:1037F00086AC08BDEBD52CD64DD60AAD70BDB8E66B
:1038000039C6AA52CA52E600333B184C313BE8296C
:103810008010A3006D22984C5644956C36A561200B
:10382000A41097B59AD659CE18C639C63AB6B25B27
:103830007243523B324350534A42C96AE782848200
:1038400069C5ECD5AED52AACC7822CB44DB4CEC474
:103850000FC5CFB411B5B0A4E220E218A110C11079
:10386000621862104110411061106108610841083E
:1038700041084108410861084108400840084008E3
:103880006A5A8B5A6A5AC7490431C328A220811840
:1038900041084108410841084108400840084008E3
:1038A000410840080000C631BEF7DBDE76B51AC617
:1038B0009BD63CE799D638CE35ADD4A470948A73A4
:1038C000CA5A694AE7390942E941A639A639084284
:1038D000E8391074128DEE73EF7BCE8B688B839377
:1038E000E99BAAB4A7B445A466AC87B4C8BC46ACEF
:1038F000E8BC2DDE6DE60CD60CCEA9A4EEAC19EF1B
:10390000ED62200824216300733B7854513B8621EB
:1039100081108200CF329954564CF674D4946118B9
:10392000262119C69AD659D638C639C61AB6B25300
:1039300052435343113B304BCC5206520883C5824D
:10394000227B8CCDEFDD90DDEAAB49930CAC8EBCD5
:10395000CFBC31C552BDF1AC02298110C218A110F3
:103960006218611041104110410861086108610846
:103970004108410841084108410840084008400802
:103980006B5A8B5A6A5AC7410431C328A220611866
:1039900041084108410841084108400840084008E2
:1039A000410861088210000017C63DEF8B52CD5AC6
:1039B000EE62EC628D73CB620A4AF18B7194B09C1B
:1039C000AA52A952E739294A0942A63964318631F7
:1039D000C8398E6BB18C8D6BEF83AD8B26830183E1
:1039E0004AAC6CC5C8B486ACE49B06A426A4A8B4B3
:1039F00086ACCBD52CDE8EE6ECCD2794EA8B97E611
:103A0000328C4110A318E600D43B774492436621E0
:103A10008118830872437854364C5885527C0000D4
:103A2000E9399BD67AD659D638CE59C61AB69153AB
:103A3000B34B533B7343EF424E5B4852A772078B25
:103A4000A372878BF1E56FD590DDCAAB499B2DB48E
:103A5000D0C4F1C4F1B453BDC5414010A2188210C6
:103A60006110611061106008600861086008410819
:103A70004108410841084108410840084008400801
:103A80006B5A8B5A6A5AA7410431C328A22061108D
:103A900041084108410841084108400840084008E1
:103AA0006108410841080000CF7B7EF7A8398D5A94
:103AB000EE622E6B8F7B6F73CD624F73B3A42E8C2F
:103AC0008A528952074229424A4AE741C63985311A
:103AD000494A30848D6B6C6B308CEE93468B21831E
:103AE0004262C69346A4C7B425A467ACE59B87B4DD
:103AF000A7B449C5ABCD6DE629B5078C0A9476DE2F
:103B00007BCE663942102B2A354C353C503BC410D5
:103B10006118C510D44B584C164C9995D06B2000A9
:103B20006B52DCDE59CE59D639CE7AC61AAE9253D4
:103B300093439443533B8F320E53EB622662A6723B
:103B4000698B646AC99BF0E54ED54FDDCAABABA368
:103B50006FBCB0BCB0B493C527524010821862103D
:103B60006110611060084008600840084008600863
:103B700041084108410841084108410840084008FF
:103B80006B5A8B5A4A5AA7410429C328A2206110B4
:103B900041084108410841084108400840084008E0
:103BA0004108621062080000694ABCDEC939693107
:103BB0002729A839094A0A4A6D5AEF6A32940F8CAC
:103BC000EB62AA5A484AE7392942A6398531E320EF
:103BD0002C6BB2942C636C6B0F8CCD8B6683E07A6C
:103BE0004262079C67ACA7ACE49B47A467AC87AC78
:103BF00009BD6ACDABCDECD587A4479C6BA435DE5F
:103C00003DDF4D6B0108CE42B7645644303BA310F4
:103C100061184611144C984C575CBAA54E5B2000B5
:103C20000D63FCE659CE79D659CE7AC61AAEB25398
:103C30009343164C1233AF320F530C6367624562E5
:103C40008772498B436AABBCCFE54DD56FDDAAA324
:103C5000CBA36EB411BD93C5E5494010811041104E
:103C60006008600860086008600860084008400854
:103C700040084108410841084108410841084108FD
:103C80006B5A8B626A5AA741E428C328A2206110AC
:103C900041084108410841084108400840084008DF
:103CA0006110210883104108042156B5138C148C2F
:103CB000717BB183949CD283CF6AB283F18B3194B0
:103CC000EC6AAA5AA952E739694A4842484AA539D2
:103CD0006952AE7B4C6B2C6BEF832E9C299C21830D
:103CE000E0594483C8B4C7B4E59B26A426A487AC96
:103CF000E8B48BCDABCDABCDC8AC479C0994D3D544
:103D00003DD755A522082C32565C354C8D32831098
:103D10004108E9217554974C565C3CB6CC520000E2
:103D2000D07BFCE679D699D679CE7BC61AAED35332
:103D3000D44BF643733BF0322F534D6B685A676A8E
:103D4000055AC772A9936372ECC4EFE56ED52ECD08
:103D50000AA42CA4EFB472BDA441400881106108EC
:103D600061086008400840084008400840084008D2
:103D700040084008410841084108410841084108FD
:103D80008B5AAB626A5AA741E428C328A22061106B
:103D900041084108410841084108400840084008DE
:103DA00040082108621041082008939C17AD359403
:103DB000349416AD17AD769CEC496E5AF28B118C8B
:103DC0002C6BAA5ACA5AC631C731073A0742653125
:103DD000284A8D73AE7B8E730F8C0D94C78BE07267
:103DE000E059037B09BDE8BC26A426A4A49346ACF5
:103DF00009BDABCD8BCD2ABDE8B4279CE89313DE7B
:103E00001CD719BE84084D32986436540C2A6308B6
:103E100041084A32745C7554555C7DC64B420100C2
:103E2000728CFCDE7AD69AD67ACE9BC61AAED35363
:103E3000F54B733BD543F03AEE426E6B0752055A91
:103E4000E4516662E77A488BC47A2CCDCFE5AEDDCB
:103E50002DC58CACAEA4B4C5C53940088108810815
:103E600061086008400840084008400840084008D1
:103E70004008400840084108410841084108410005
:103E80008B5AAC626A5AA741E428C320A220611071
:103E90002008400841084108400840084008400800
:103EA000601062104210821061108B522C522D5201
:103EB0000F6BB183EE6AAF62AC418E62D28B5294CB
:103EC0008E7BEB622C63073AA629283A074285319C
:103ED000274AEF83AE7BF083919CEB8B2573806246
:103EE000C051C693E8B4E8B446A4069CE59BE49BA5
:103EF000C8B46BCD8BCDC8B4C8B4479C099CB1CDB8
:103F00001CDF97AD8400AF32B95C164CCB1963004F
:103F10008210E829F25B746494749CC6E93905192F
:103F2000D49CDBDE7AD67AD67ACE7BC6FAADD35372
:103F3000D44BB443B4437243EE426E6B485A434190
:103F4000A451E4598772E882078BE58A8EDDCEDDC5
:103F5000EFDD6FC530B5F5CD853100008208610019
:103F600061086108410841084108410841084108C9
:103F7000400840084008400841084108410041000D
:103F8000AB62AC626A5A8741E328C320A220411089
:103F900020084008410841084008400861086110B5
:103FA000601062104210A218811005290831872084
:103FB000507B907B0731E928AC4192831394D183E5
:103FC000CF836D732C634842A6294942E739C6392D
:103FD000E6412F8C318CAF7B13AD0B8CA683E58B28
:103FE000005A48A429BDC8B4059C47A426A4828BC6
:103FF00066AC0DDEE9BC87AC87A4479C49A490CD94
:10400000DBE6BCD69153933B994C364C6D22830032
:10401000A308C410E610A8216F63F8B50519117C38
:10402000DCD67ACE9BD67ACE7ACEBCCE1BAEB2533D
:10403000F44BB443733B5143EE4A8E736962634958
:1040400063494349276A0A8B2993289346936DD580
:10405000CFDD8FCDD2CD32B5A11841086208410025
:104060004100410841084208210821086210200847
:1040700041084008400860084108610841084100C3
:10408000AB62CC626A5A8641C328C320A220411089
:104090004108410841084108410840086108611091
:1040A000600861106210A1186010E4200831093125
:1040B0001BCED9C52731CC490D52EF6A707BF28BEC
:1040C000F08BCB5A0B63EA5A4421652908426431CC
:1040D000C539CE83318C528C12ADEA83E78BE58BE8
:1040E000C37A68AC6BCD09BDE9BC47A467AC25A415
:1040F00086ACEDD5A8B447A4269C88ACE79B0DBD43
:10410000BBEE9BCE345C3644B94CF63BCF2A0A2238
:10411000A408841084108410E41086298200AB4A1D
:10412000DCD69ACEBBD69AD67ACE9CCE1AAEB253F5
:10413000D44BB443934372430F4B8F7369628551E1
:104140000241E240E569C98A099349A3E692679B67
:104150004DD5AFDD90CDB2CD4239000820084208E0
:104160004008200020000100621042080000621098
:1041700041084008400840084008410841084108FB
:10418000AC62CC624A5A6639C328C320A2204110CF
:104190004108410841084108410840086108611090
:1041A000801061108210A1188010C32008296A397C
:1041B000138C5294EA496E5A8F622C522F73539487
:1041C000EF832C6B684A2B63E6394529C741A5412B
:1041D000C441EE83528CF08353AD2B94489C027300
:1041E000616A68ACACD529BD4BC588AC67AC049C92
:1041F000C8B4CCD54BC567A4A7ACC8AC079C8AACE7
:10420000BBEEF9B535549844BA4CD53B10330E3B50
:104210002609C508851084102421E310E310051930
:10422000DBD6BBCEDBDE9AD65ACE9BCEFAADD353CD
:104230001554F54BB443724B0F4B2D632852A551C7
:1042400043494351C0400572299B28A368AB47A34B
:1042500086A38EDDCFDDD0D54FBDE44900084018E0
:104260004008611041082108220842082108210065
:1042700041084008400840084008410841084108FA
:10428000CC62CC6A4A5A4639C328C32082184110EE
:10429000410841084108410841086108610861106E
:1042A000A01061108310A118C018E3200829AB41A9
:1042B000B183D8C58D5A2D528F62AD626F73B183B1
:1042C000CE83B19C6852A95A274AC749C749C549F4
:1042D000054AED839294318CB5BDA883A68B027BF1
:1042E000248388B42AC5E9BC0AC567AC059C65A4CB
:1042F00008BD8BCD2BC588ACE9B4E8B467A448A44D
:10430000DBE67795F44378449954B543D032304393
:10431000904B504B8C3A6721C31061086108B39CE5
:10432000BBCEBBD6DBDE9BD65ACE9CCEFAADD353EA
:10433000F44BD443933B7243304BED5A084AE75158
:104340008451845141496159648228A348A367A3D9
:10435000469B449BCEE5CDDDAED5D1D5E3510010D3
:104360006010200820084110210801084208210897
:1043700041084008400840084008400841084108FA
:10438000CC62EC6A4A5A4539C328C32082184110CE
:10439000410841084108410841086108610881104D
:1043A000A0188210A318C218E120E3202931ED499A
:1043B0005394F4A4D283B062EC490629A839B07BA7
:1043C000509450942752E96AEA6A0852285AA86A17
:1043D000C341AC7BB29C15A553B5E98BA58B8593E6
:1043E000448B88B4E8BC66ACE9BCE9BC87ACA6AC3D
:1043F00008BD6BCD47A467ACC8B48BCD09BD279C65
:10440000DBD63785154C794C58547443AF3A514339
:10441000F34B1454956C126C727CAA5255B51DEF77
:10442000BACEBAD6BAD69AD67ACEBCCEFAA5D353DD
:104430003554F543D543B343714BCD4A8731663983
:10444000654143414241E461E369247A289BC58A7E
:10445000469BC7ABA59B6CD5ADD5CFD511DEC5723C
:1044600000086010401020082008210842082100A0
:1044700041084108600840084008400841082108F8
:10448000EC6AED6A49522531C328C32082184110D5
:104490004108410841084108610861088110811004
:1044A000A010A218A418E220E120C320AB414E5A6C
:1044B00016AD2D6B749CAC418718A520C94133946F
:1044C000909C4F940A6BA86AAC8B4D8B4D8BA87255
:1044D000655A2D8C55ADF8C5ED8329944483238B03
:1044E000448BC9BC2AC505A40AC58CD54AC5A6AC4F
:1044F00008BD4AC588AC47A4E9B4ABCD8BCDE593E4
:104500009AC61785164C594C58547243CF3A5143AA
:10451000B343564C7654B56C1DD73DE71CE77AD6AD
:1045200079CE9AD6BAD6BADE9AD6DDD6FAA5D353C4
:10453000154CF543D53B733B3143EA292300010871
:1045400021084110C2202239876AE882667A0793DF
:10455000A582479329AC28A44DCDAED5AECD30DE93
:10456000AA834010000860100000410800004108C4
:104570004100400060084008400841084108210807
:10458000ED6A0D6B29522531C328C32861184110EB
:104590004108410841086108610881108110A1109B
:1045A000A010C318C41803210121E3200C526E5A35
:1045B00053945194707B4A39A7208418C841949C25
:1045C000F1AC4F9CAC8B6A836FACCEA30B8BC87ADB
:1045D0008562AA7BD7C5B7BD297366832383C6A32B
:1045E000A69BEAC44ACD26A4C9BC4BC54AC549C549
:1045F00008BDC8B40ABD47A44AC529BD6AC5C4934D
:10460000D8AD9674F64B784C774C713BCE32514313
:10461000D64358445744D76CDDCEBBD6DBDE99CEAB
:1046200058CE99D699D6BADE9AD6DDD6DAA5D35326
:10463000164C3744163CB43B73432C2A850884102F
:10464000A4004300220001084118C5518B93088B38
:10465000A6820BAC6DB4A99BA8932DC5EFD56CC5F4
:1046600032D68D9CA018000881180000821021000D
:10467000410040004000400840084008210821084F
:104680000D6B0D7329520531C328C32882184110C0
:10469000410841084108610861088110A210A21870
:1046A000C018E418A4180321222904292D522E52DF
:1046B0004B52118CEE6A4618C820A5208B5A539491
:1046C0004E94CC8B0D9C6EA42EACCEA3AA82298BCB
:1046D0000673CB8379D61084E86A257B238B0393FA
:1046E000406A88B42ACD46AC26A44BCD6AC58ACD93
:1046F00069C567A4C9B468AC6AC549C56AC5269CC2
:10470000F594556C16549954774C5033CE3252432D
:10471000B6439A4C794C3A7DDECEDCDEBAD6BACEC0
:1047200038CE99D699DEBADE9BD6DDD6DAA5D3533C
:10473000364C5744163CB43BB3438E322819682993
:1047400089192811E710A510221000082341A87A22
:10475000A77AF1C46B936249A672257B2CBDEED576
:104760008FBD12CE10B5A3390000400820004100D3
:10477000410040004000400840084008210821084E
:104780002D730C6B09520431C328C22081184110CB
:10479000400861086108810881108110A110A118EA
:1047A000C120E2200221032124294629094AAC5ACA
:1047B00027298510A518A518C52026296B52AC5AA3
:1047C000AE7B4C7B4FA46FACECA3ECA38A8BAB8B82
:1047D0008B832A7B2D9C4A8B488B268B08A489B41B
:1047E00069AC26A48ACD29BD46A4A8B449C589CD03
:1047F00028C546A4C9B4A8B48ACD49C509BDC9B461
:104800004E845374585C3944784C3133CF32513B29
:10481000344C954C745477959AD699DEBAD69BC68B
:1048200098BE98C677CEB7D6B8CEFBC6DB95B65342
:10483000F75BD44B3454D34BB443D022CA09E809B4
:104840008D290B114C192C194B19E6004000201929
:10485000297393C569520008A3282341C57289A40E
:1048600010EE8DDD6CCDAFD5856A000800086008BC
:1048700040004000800060006000600821080308DC
:104880002D73EC6A08520431C328C22081184110EC
:1048900040086108610881108110A110A118C11899
:1048A000C118E220032123292429C7398F7B4F6BAC
:1048B0008C5A6C522B4A6C528C5A4A522D6B35AD25
:1048C00050948D8370AC6FB44DAC0CA4AB93AB8B98
:1048D000EC8BAC8B876AE87AC67A2AA4EBBC50EEE4
:1048E00050EEEDDD29C56ACD26A467AC29C528C5E3
:1048F00069C5C8B488ACA8B4ECD58ACD08BD2ABDBA
:104900002D8CD06B9443594C574C513BAF32924352
:10491000554C954C5454D99D9AD699DEBAD69BCE17
:10492000DAC637B678CE77D657CEBBC6798DD54B9B
:10493000174C364C14441444F54BB13A8B29CB41F7
:104940000F2AEF216E112D11AE214D3226090000E4
:10495000E65175CDC7412000400080180039204144
:10496000E68211E68ED56ECDD1D54D9CA0200008F3
:1049700040088210000060008008000042102208F9
:104980002D73EC6AE8490429C328A220611841105C
:104990004108610881108110A110A110C218C2182D
:1049A00002212229E22023294429C73910844E6B91
:1049B000CD5A8C526F732F6BA8398F73D8BD59CED7
:1049C00013AD709CF2BC4EAC2DAC2CAC0C9CCB93BC
:1049D0008B83ED93297BA351C3592683A79349ACBD
:1049E0006FEEF0FE29C529C5C8BC06A4A8B409C548
:1049F000ACD567ACE69BA8ACCCD50CD68AC508B5BF
:104A00002EADAE6B11337433154C6E2AAF32B44BEE
:104A100055549654545C3BB6BBD699DEB9D6BBCE42
:104A20007ABE38BE18CE58D657D61CDF5895D55307
:104A30001644774C76441544F753B24ACA308B5922
:104A4000922AF42A121AD1196F110F2ACB21A5101C
:104A50004220D4BC66312000A10060086028603884
:104A6000803884724DCD0FDE8ECDD0D52FBDC34999
:104A700000080108230822082100200082100000FD
:104A80004D73CC6AC749E428C328A220611840109E
:104A9000611061088110A110A210C218C218E22092
:104AA000E120022143294329C218CE7B9EF719C673
:104AB000D8BD7BD657AD118415A5BBDE7AD618C6F6
:104AC000B5BD54BD32C52EACECA34DAC6DAC0C9C49
:104AD0000D94CC8BAC9325624049436AA059A372D4
:104AE0008BD5C8BC29CDCCDDA8BC67B4C9BC88B403
:104AF0008CD5A9B468AC09B58BC5CBCDAAC549B5D1
:104B00004CBDEC73CF32733B723B0C22CC21902A0C
:104B1000F54B765475649CC6BBD699D6BAD6BAD630
:104B20007BCE5AD6D7CDD2AC53BDB294B48C55748B
:104B3000565C154C35441644795C955B4A318628A1
:104B4000512A922AF111121AD121312A2E1A481112
:104B50000200EC7244398018E549C551C040425901
:104B60002149E040604989B40FE66DCD6ECD12DE7B
:104B70008B83001002080208210861082000400011
:104B80004E7BCB62A741E328E328A22061184110A5
:104B9000611061108110A210A210C218E22002213F
:104BA000222942294229432902219194FFFF7EEFC5
:104BB000BBD6D49C939439C6FCDE7AD679CEB6B5F2
:104BC000D5C5B5CD32C54EACAB9B4DAC6DAC2C9CB8
:104BD000EC93297BCC938772C038C03880512583F1
:104BE000E9CC26B460726BD56BD506AC06A40AC5B9
:104BF000C9BC88AC269C469C8BC5CCCD8ABD49B52A
:104C00008BCDCE94B1539343CF328919ED21F23A33
:104C100094435554D67CBDCE9BD69AD6BAD6B9D637
:104C20005ADEF8D534BDB4CDF4CDB4B5F394948444
:104C30003474355C154C36447854365C747CCC5AEC
:104C4000EF59914A912A1012F119512A2D1AA909E6
:104C50004100074A2241046AC369E050C261A15180
:104C600080512262816AC17A27ACADDDADD54CC5D9
:104C700052E6055A00082110200861082000610052
:104C80004E7BAB628641E328E328C22061186110A5
:104C900061108110A110A210C218E218E2200221B6
:104CA0002221012183318431E11833A59DF7D7BD3D
:104CB000B394F8BDBFFFFCDEAB524C6BDADE95B5AA
:104CC00094BD94C5F1BCB0BCECA30CAC2CA44DA419
:104CD000CB936B836A8BCC9B214140284049058351
:104CE00089BC817AC061C6A388B4E9C4E5A3C9BC04
:104CF000A9B4C8B429BDC7AC4BBD8CC58BC5ABC569
:104D000049CD8C8CB05331330F3BAA194E32D2327D
:104D1000B543355C57959CCE9BD69AD6BAD698D6D5
:104D200079D695BDD5C551B550AD70A5CF945084F9
:104D3000B3843364544C153CF95C1454337C19CE61
:104D4000CF91706AB13ACE09101AB2320D1A4701EA
:104D5000E30801294049C1694059C069C061226224
:104D60004483069CC59B06A4A59B43936BD5CBDDD2
:104D7000ADD54AA44018201020004000400021007A
:104D80002D738A5A6639E328E328C320611861101D
:104D900081108110A210C210C218E2180221022153
:104DA00063292221222163294329F29CFBDE58C674
:104DB0007EEF7EEF7ACE96B50000E318D6BD37C6FB
:104DC00053B553BDF1BC11C54EB40CAC2CA44DA4CD
:104DD000CC938B8BAC93ED9BA77A0020A57A90D5D2
:104DE0006693E048E048669B89BCC8BC8493E6A310
:104DF000C9BC45A4C6ACA7AC0AB5EED5ADCD8CC533
:104E0000E7BCAD94F25B144CAE2AAA19D042796487
:104E10003754345CB9A59CD69BD69ACEBAD698D6D0
:104E200097CE15BED3B5EF940E956FA50F9DF09458
:104E3000917CB36C1344964C774CD453D69C2A5A2D
:104E40004970EE6112437012F011B23A2E2A07092E
:104E500042080231A249C04980416062A27AA79B00
:104E6000049C25A4059C27AC8ABC8AC4018B69CD0F
:104E70000CDEADCD804100086010200041004200F2
:104E80002D736A5A4539E328E328C2288118611036
:104E90008110A110C210C218E218E21802212329C1
:104EA000422963298331842902219094BDF7BEF7FA
:104EB0009EEFEC5AA7313DE7083A0000EF7B17BEA2
:104EC00012AD53BD12BD11C58FBC2CB44DAC4DAC51
:104ED0004DA42DA4CC930DA44EACC359A259657218
:104EE000036AC3614030C261A69B6BD56493238B78
:104EF0008BD508C507BD86ACC9AC6DC569A4C9AC66
:104F0000C8BC4C84135C975CF4532C2A3243795C04
:104F1000B864546419B69BD6BCD67ACEBAD698DE9D
:104F200014BE35C6F4B52C7C0F95475B2B7C30A5A1
:104F3000B18C5274F34B7644B854B764D36B030806
:104F4000CA687062333B7112F011965BD14A8500DA
:104F500005294449A35120398039816229ACCCCC40
:104F600049C586AC26A407AC6ABC2DD547B465AC50
:104F70002DDE30DEEB8B00082008200041004200CF
:104F80000C6B2952253104290329A220811881188C
:104F90008110A210C218E218E2180221022122296F
:104FA000432943296329A4312321AD73FFFF694AB3
:104FB00076AD6E6B2100BBD6B3940000C63158C6E7
:104FC00053ADD1A432BD12CD6EBC2DB42DAC4DACC1
:104FD000CFB44EA40DA44EAC6FB4ECA3C77AC259A3
:104FE000A359225180386030A05989B4C69B406AC9
:104FF000A8B4A7B4E7BCC39347A46DC5CFD54FDE13
:1050000013FFF9DEB76C785492432D22944B995CD0
:10501000775C746C7AC69BD69BD6BBD6BAD657D66D
:1050200014CE15C672AD0953E84AC7520B8411B5A8
:10503000919C127CF55B374C98449754EC11CB2132
:10504000EE8990623343921AD019134B4E3AE61010
:10505000C841C759066AC2592162658B49B48AC4DE
:10506000C9BCE9BC89B48ABC8BBC4AB4EABC228303
:1050700068A42A9CD1AC45310000410841082100B8
:10508000EC6A295245390429E328A22081188118A5
:10509000A110A210C218E21802190221222122290D
:1050A00043292329432964292321A952DEF7C6393C
:1050B000EF7BB7B5010031841DE72521610855ADAF
:1050C000D5BDB19C12B512C5B0C40DAC2DAC0CA4AD
:1050D000F0BC93CD52CDD0BC8FBC8FBCAFBC2DAC3F
:1050E0006A934A8BA982C461A159879B6AB4E382FF
:1050F00007A4C8BC8ACDC3938CCD6CCD6CC593FF7F
:1051000096FF5BE77764784CB43B6E22B44B995CB6
:105110007654D4749ACEBAD6BBD6DCD69AD658D6A4
:10512000B3C576D673B52A636B6B8B738A7B6A7B48
:10513000509CF27BD55B374C58441644EE19AD2198
:105140006EA11072755B30129132315B0619242109
:10515000A64107622672657A8382659B27AC68B494
:10516000C79B28A428ACC89BC89B468BA593806A84
:10517000457B40182110030843100100000040083F
:105180000C6B6A5A86410431E328C22081188118C9
:10519000A118C218E218021902212221222942294B
:1051A00043296329843164314329A5319DF76D6B0F
:1051B000E7393DE70521A7319FF7AF730000AB52F8
:1051C0001BDFB5BD54BD32C5B0BC4EB40DACEC9BBD
:1051D00010C515E6F5E5B4DD94DD52D511CD2DAC45
:1051E000AFBCB0BCD1BC2EACEBA3CAA3ADC4ACBCAD
:1051F00028AC0AC5ABD5049C638B438BE9B4ECD5D2
:10520000F5F679CE165C995453338F1A5754985C3F
:1052100055543585BACEBAD6DCD6DCD67ACE58CE41
:10522000D3BD15C612A50A63CE7BE962865AAB7B55
:10523000B194336C154C984C7854F75B114A2E514D
:10524000CDB8119AF35A4F1AF45B2F634110A44161
:10525000265A876A2462A472E37AA59B87AC2ABD8A
:1052600069AC29AC8AB4E8A3A7934AAC489CA5834F
:105270002573A020010823080308200060082000EF
:105280002D73CB62E7492431E328C220A118A1186D
:10529000C218C218E21802212221232142294329DF
:1052A00023294329843163296429032158C6F7BD82
:1052B0006208BBD66E6B0100B7B59BD6A3108210F7
:1052C00017BEDADE95C533C590BC11CD4EB42DA402
:1052D0006EACF0BCF1C4B4DD57F636EEB4DD52CDA1
:1052E00010C552D552D58FBC31D5AEC4EBAB4BB443
:1052F0004AB448AC839346AC6ACD09BDE8B486A4F1
:105300002EBD74ADF45B995C1223901A985C775CA7
:10531000345C9695DACEBAD6DCDEDBD659CE38C60A
:1053200055C635C612A570942F944B734973109DC2
:10533000B07C735C35449744564CF673116A5071D7
:105340006FA9107AD24AF132B25B4E6B4339C4591D
:10535000056286726462657BE58B46A488ACC9AC45
:1053600049ACAAB4EBBCE89B8BB44AA4A68B0794C7
:105370004673A339000802080100000080104000B5
:105380006E7B0C6B28524531E328C220A220A11865
:10539000C218E2180219032123212221422942299D
:1053A000432943296329632984310221EE7B9DF738
:1053B000A31051845ACE01000D63DFFFEC5A0100A7
:1053C0000B5B1BE7B6C554C5D1BC12CDF1C48EB47E
:1053D0006EAC6EAC2EAC4B936772E569C982D0BCE3
:1053E00035EE56F656F6D4E5F4ED72DD6DBC6CBCC8
:1053F000E8A3C6A32AC54EEE4DE6AACD29BDE49387
:10540000A78BF2A4F36336541223F1225754986405
:10541000335CF8A5DACEBBD6DCDEDBD639C638C6BF
:10542000D8D6D5BD33A5EF83274AF1A4CB7B319DD8
:105430004F743364564C7744144435642F52AF6133
:105440000F4A134B9543333B304B2D636331455A21
:105450006672C77A436224738483069C69AC8BB4FA
:105460006CCDEABC28A449AC8BB42AA4C79307949A
:10547000299465520000410861100000400040007E
:105480006E7B0C7329524531E328C220C220A1183B
:10549000E218E21802212221222122214229422956
:1054A0004331633163316331633122212742FFFF8E
:1054B000EB5A25219FF72A42620839C63AC64208AC
:1054C000E31079CE17CE54C512C56FBC15E6D4DDF6
:1054D00051CDF0C4F0C4EDABC98243510020002887
:1054E000A361A361C7826EBC8FBC11D591E52AB4BC
:1054F0006593CEDDB1F6D0F6ECD5EBD5CBCD67A478
:1055000044834D94126CF453D0225333785C776407
:10551000546C59B6DACEBBDEBBDEBBD618C639C674
:10552000F7BD75AD95AD0F7C4C63A4298A6B119DB9
:10553000117CF46337545744343CB65CAE324B2193
:105540007002541BF83B385C525B2942A43166520E
:105550004662A77AA472248322836593C9A30BA40D
:1055600007948DC5AAAC2DC5CDBC478BC893E793D6
:105570008783A662201000082008200040006008F1
:105580006E7B0C6B28524531E328C220C220C2201A
:10559000E220022103212321232143214229422900
:1055A0002229222943294229222922212321BAD62C
:1055B000F7BD0000D8BD76AD0100ED5A9FF7094256
:1055C0002000308458D695CD33CD4FB415E6D8FEA3
:1055D00076EEF4E573D5B0BC2EB4CDA3A87AE56120
:1055E000A040E0486159826160408361A9A345936E
:1055F000849B2EE66BCD0DDEEBD5AAC54ABD689C1B
:10560000638B687B317CD3538F1AB43B9964155CF0
:1056100094749ABEBBCEDBDEBBDE9AD618C639BE0A
:10562000F9AD9BC6DCCE9AC679BEF28CD08CF28CDA
:105630003274B55BF853F73B143C3765345C4E323B
:105640005202151B562BD74BF56B662984316752D6
:10565000255AA6722583848B4393659BCAA32E9CEF
:10566000C88B836AABB42AA4C99B0AA4A89B099CD3
:10567000888B666240182008200820002000200047
:105680004E7BEC6A08524539E328E228C220E2202A
:10569000E2200321232123212321432142294229DE
:1056A000433122294229422963294329A110B19477
:1056B0009EF7E418CC5A9FF78731A4107BCED49C78
:1056C0002000083A9ADEF7DD33CD4FB48FB414E6EC
:1056D00055E656EEF4E532CDB0BC90BC4FB4CD9B50
:1056E0002A93667AE369A2618361A3692272E282E6
:1056F00026ACE8BCE9BC29BDABCD69BD2AB5AAA4DE
:10570000628B267B3084B25BAF22F543585CF55B3D
:10571000B57CBBC6BBCEDCDE9BDE9AD618C639BED6
:105720009DAEB9959BB6FCC6DBBE1BC757AE959523
:10573000746CD7533A4CD733F4339A7D9FBEDA9CBE
:10574000B742F419F62A512252534621853905529F
:105750004662A56AA683259C05AC08B46DACF1A48D
:10576000C249602040410AA427836DB4EAA32AA459
:105770004783E5512018000800004008410041001F
:105780000C7BAB6AE7512431E328E220E220E220DF
:10579000022122212329232923294329432943297B
:1057A0002229432943292221232944298110CA5A25
:1057B000FFFFCF7B00009ACE35A50000F07B9FEF66
:1057C0006731621018C6BAEEF2C470BCB0C452CDD4
:1057D000B3D535E656EE36E6F5DD53CDB0C450C44C
:1057E0008EACAFB4EB9BC6822472A269C048E48A37
:1057F000E5A3E6B467C569C5E9B4CAB4A9AC26A4F3
:10580000458B84720C94CF638D22153C985CD55BDC
:10581000F79C9BD6FBDEDBDE9BD67AD6D6BD78CE58
:10582000FBD673B510AD55A55BA69CAE3CC79BB629
:10583000966416443444B143B253FCAD5AC656D6AE
:10584000D6B5D26B713AD119722AED216621E541A4
:10585000045A078B6793E8A38AB4ABACEEB4CB8B46
:105860002221A4316239E76ACDB4CCB40EBD4B9C81
:10587000687BC34140084008400800002108010837
:10588000EB7AAA6AE751243103290221022102217D
:10589000222122212229232923294329432943295B
:1058A000232923292229232102212321C218A631B9
:1058B0007DEF79CE82100C63BEF745210419FCDE22
:1058C000F5A40000E74199E695D512CD32CD31C55A
:1058D000F0BCAFB4F1C4D5DD73CD36E653DDB0CC4A
:1058E00031C552CD31CD4DB46AA3A88A82610693E9
:1058F00048B466AC28BD29BD2BBD289C279CC59308
:10590000258B836AAB83AE63AD22F53B785CD45BB9
:1059100079ADBBD6FBDEDBD67AD65ACED6BD99CED4
:10592000FBD63AE7D9E6D8AD5885988DB89DFAA54B
:1059300076643644F43B713BF45B5DBE19C616CE0B
:10594000B9CEF68CEF29B43A8F112D2AC729C4415C
:10595000866AE7826793C79B48A40CBDCDAC04520E
:10596000C439E541C76240390EBDACAC0DBD4FBD79
:105970002C94A33960082000200000002108420870
:10598000CB728A6AE7494431032923292221222143
:10599000222122212229232923294329432943295A
:1059A0004329222102212329E220E218E218811052
:1059B000D6BDFFFFCB5A620859C696AD00004D63B5
:1059C000DFFF8B520000C64113C5F6EDF5ED93D510
:1059D00031C5F0BC0EAC4EAC424183516FBCB4ED4E
:1059E00057EEF5E5F4E5F0CC4FBC70C4CEB3ECABAC
:1059F0002BB408A42BC5EEDD69A4C793C693858399
:105A00000383A36AAB831074AE2216443754156423
:105A1000FABDBBD6DBDEDBDE7ACE3ACEF7BDB9D639
:105A20003CDF9AD61CE73AB6746CF674F67C957433
:105A3000365C374CB4333133766CBECEF9BDF7C526
:105A400078C63ABE5353F121CF190C2A293A264A77
:105A5000255A078BA89BE8A32CC56DC52A9C866A8E
:105A6000CC7B086B0C8CAA8B2FBDEDB40A9470BD57
:105A700048736231200820006108610800000008B6
:105A8000CA72896AE649443923292329222122211D
:105A90002229222923292329232923292329432190
:105AA00042290221022122210221E21803212000A1
:105AB000CE73FFFF39C641088A52BFF78B4A4208AE
:105AC00077AD3DE7A6310010AD93B5E5D9FE15E6FB
:105AD00093CD11C58FBC0DA4E5592028C140888203
